{
  "contractName": "NoBlankImg",
  "abi": [
    {
      "constant": true,
      "inputs": [
        {
          "name": "",
          "type": "address"
        }
      ],
      "name": "peer",
      "outputs": [
        {
          "name": "isEnlisted",
          "type": "bool"
        }
      ],
      "payable": false,
      "stateMutability": "view",
      "type": "function"
    },
    {
      "constant": true,
      "inputs": [
        {
          "name": "",
          "type": "address"
        }
      ],
      "name": "verifiedAsset",
      "outputs": [
        {
          "name": "exists",
          "type": "bool"
        },
        {
          "name": "digest",
          "type": "bytes32"
        },
        {
          "name": "hashFunction",
          "type": "uint8"
        },
        {
          "name": "size",
          "type": "uint8"
        }
      ],
      "payable": false,
      "stateMutability": "view",
      "type": "function"
    },
    {
      "constant": true,
      "inputs": [
        {
          "name": "",
          "type": "address"
        }
      ],
      "name": "admin",
      "outputs": [
        {
          "name": "isAdmin",
          "type": "bool"
        }
      ],
      "payable": false,
      "stateMutability": "view",
      "type": "function"
    },
    {
      "constant": false,
      "inputs": [],
      "name": "renounceOwnership",
      "outputs": [],
      "payable": false,
      "stateMutability": "nonpayable",
      "type": "function"
    },
    {
      "constant": true,
      "inputs": [
        {
          "name": "",
          "type": "address"
        }
      ],
      "name": "unverifiedAsset",
      "outputs": [
        {
          "name": "exists",
          "type": "bool"
        },
        {
          "name": "digest",
          "type": "bytes32"
        },
        {
          "name": "hashFunction",
          "type": "uint8"
        },
        {
          "name": "size",
          "type": "uint8"
        }
      ],
      "payable": false,
      "stateMutability": "view",
      "type": "function"
    },
    {
      "constant": true,
      "inputs": [],
      "name": "owner",
      "outputs": [
        {
          "name": "",
          "type": "address"
        }
      ],
      "payable": false,
      "stateMutability": "view",
      "type": "function"
    },
    {
      "constant": true,
      "inputs": [],
      "name": "isOwner",
      "outputs": [
        {
          "name": "",
          "type": "bool"
        }
      ],
      "payable": false,
      "stateMutability": "view",
      "type": "function"
    },
    {
      "constant": false,
      "inputs": [
        {
          "name": "newOwner",
          "type": "address"
        }
      ],
      "name": "transferOwnership",
      "outputs": [],
      "payable": false,
      "stateMutability": "nonpayable",
      "type": "function"
    },
    {
      "inputs": [],
      "payable": false,
      "stateMutability": "nonpayable",
      "type": "constructor"
    },
    {
      "anonymous": false,
      "inputs": [
        {
          "indexed": true,
          "name": "assetId",
          "type": "address"
        },
        {
          "indexed": false,
          "name": "digest",
          "type": "bytes32"
        },
        {
          "indexed": false,
          "name": "uploader",
          "type": "address"
        }
      ],
      "name": "AssetAdded",
      "type": "event"
    },
    {
      "anonymous": false,
      "inputs": [
        {
          "indexed": true,
          "name": "assetId",
          "type": "address"
        },
        {
          "indexed": false,
          "name": "digest",
          "type": "bytes32"
        },
        {
          "indexed": false,
          "name": "uploader",
          "type": "address"
        }
      ],
      "name": "AssetRemoved",
      "type": "event"
    },
    {
      "anonymous": false,
      "inputs": [
        {
          "indexed": true,
          "name": "assetId",
          "type": "address"
        },
        {
          "indexed": false,
          "name": "digest",
          "type": "bytes32"
        },
        {
          "indexed": false,
          "name": "peer",
          "type": "address"
        }
      ],
      "name": "AssetVerified",
      "type": "event"
    },
    {
      "anonymous": false,
      "inputs": [
        {
          "indexed": true,
          "name": "assetId",
          "type": "address"
        },
        {
          "indexed": false,
          "name": "digest",
          "type": "bytes32"
        },
        {
          "indexed": false,
          "name": "peer",
          "type": "address"
        }
      ],
      "name": "AssetUnverified",
      "type": "event"
    },
    {
      "anonymous": false,
      "inputs": [
        {
          "indexed": true,
          "name": "peer",
          "type": "address"
        },
        {
          "indexed": false,
          "name": "admin",
          "type": "address"
        }
      ],
      "name": "PeerEnlisted",
      "type": "event"
    },
    {
      "anonymous": false,
      "inputs": [
        {
          "indexed": true,
          "name": "peer",
          "type": "address"
        },
        {
          "indexed": false,
          "name": "admin",
          "type": "address"
        }
      ],
      "name": "PeerDelisted",
      "type": "event"
    },
    {
      "anonymous": false,
      "inputs": [
        {
          "indexed": true,
          "name": "enlistedAdmin",
          "type": "address"
        },
        {
          "indexed": false,
          "name": "admin",
          "type": "address"
        }
      ],
      "name": "AdminEnlisted",
      "type": "event"
    },
    {
      "anonymous": false,
      "inputs": [
        {
          "indexed": true,
          "name": "delistedAdmin",
          "type": "address"
        },
        {
          "indexed": false,
          "name": "admin",
          "type": "address"
        }
      ],
      "name": "AdminDelisted",
      "type": "event"
    },
    {
      "anonymous": false,
      "inputs": [
        {
          "indexed": true,
          "name": "previousOwner",
          "type": "address"
        }
      ],
      "name": "OwnershipRenounced",
      "type": "event"
    },
    {
      "anonymous": false,
      "inputs": [
        {
          "indexed": true,
          "name": "previousOwner",
          "type": "address"
        },
        {
          "indexed": true,
          "name": "newOwner",
          "type": "address"
        }
      ],
      "name": "OwnershipTransferred",
      "type": "event"
    },
    {
      "constant": false,
      "inputs": [
        {
          "name": "_admin",
          "type": "address"
        }
      ],
      "name": "enlistAdmin",
      "outputs": [],
      "payable": false,
      "stateMutability": "nonpayable",
      "type": "function"
    },
    {
      "constant": false,
      "inputs": [
        {
          "name": "_admin",
          "type": "address"
        }
      ],
      "name": "delistAdmin",
      "outputs": [],
      "payable": false,
      "stateMutability": "nonpayable",
      "type": "function"
    },
    {
      "constant": false,
      "inputs": [
        {
          "name": "assetId",
          "type": "address"
        }
      ],
      "name": "verifyAsset",
      "outputs": [],
      "payable": false,
      "stateMutability": "nonpayable",
      "type": "function"
    },
    {
      "constant": false,
      "inputs": [
        {
          "name": "assetId",
          "type": "address"
        }
      ],
      "name": "unverifyAsset",
      "outputs": [],
      "payable": false,
      "stateMutability": "nonpayable",
      "type": "function"
    },
    {
      "constant": false,
      "inputs": [
        {
          "name": "assetId",
          "type": "address"
        },
        {
          "name": "digest",
          "type": "bytes32"
        },
        {
          "name": "hashFunction",
          "type": "uint8"
        },
        {
          "name": "size",
          "type": "uint8"
        }
      ],
      "name": "addAsset",
      "outputs": [],
      "payable": false,
      "stateMutability": "nonpayable",
      "type": "function"
    },
    {
      "constant": true,
      "inputs": [
        {
          "name": "assetId",
          "type": "address"
        }
      ],
      "name": "getAssetByHash",
      "outputs": [
        {
          "name": "",
          "type": "bytes32"
        },
        {
          "name": "",
          "type": "uint8"
        },
        {
          "name": "",
          "type": "uint8"
        },
        {
          "name": "",
          "type": "bool"
        }
      ],
      "payable": false,
      "stateMutability": "view",
      "type": "function"
    },
    {
      "constant": false,
      "inputs": [
        {
          "name": "assetId",
          "type": "address"
        }
      ],
      "name": "removeAsset",
      "outputs": [],
      "payable": false,
      "stateMutability": "nonpayable",
      "type": "function"
    },
    {
      "constant": false,
      "inputs": [
        {
          "name": "_peer",
          "type": "address"
        }
      ],
      "name": "enlistPeer",
      "outputs": [],
      "payable": false,
      "stateMutability": "nonpayable",
      "type": "function"
    },
    {
      "constant": false,
      "inputs": [
        {
          "name": "_peer",
          "type": "address"
        }
      ],
      "name": "delistPeer",
      "outputs": [],
      "payable": false,
      "stateMutability": "nonpayable",
      "type": "function"
    }
  ],
  "bytecode": "0x608060405234801561001057600080fd5b50336000806101000a81548173ffffffffffffffffffffffffffffffffffffffff021916908373ffffffffffffffffffffffffffffffffffffffff16021790555060016004600061006e610138640100000000026401000000009004565b73ffffffffffffffffffffffffffffffffffffffff1673ffffffffffffffffffffffffffffffffffffffff16815260200190815260200160002060000160006101000a81548160ff0219169083151502179055506001600360006100df610138640100000000026401000000009004565b73ffffffffffffffffffffffffffffffffffffffff1673ffffffffffffffffffffffffffffffffffffffff16815260200190815260200160002060000160006101000a81548160ff021916908315150217905550610161565b60008060009054906101000a900473ffffffffffffffffffffffffffffffffffffffff16905090565b61243c80620001716000396000f3006080604052600436106100f1576000357c0100000000000000000000000000000000000000000000000000000000900463ffffffff1680630bb03f52146100f65780631f7569dc146101395780633c21b50e146101945780634a5e42b1146102185780634afd6e321461025b5780635eaabaf31461029e57806363a846f814610322578063715018a61461037d578063745f646e1461039457806380f765a1146104185780638da5cb5b1461045b5780638f32d59b146104b257806390a517ca146104e157806394c6432a14610524578063cbdb3d6014610567578063d20214d3146105d2578063f2fde38b14610615575b600080fd5b34801561010257600080fd5b50610137600480360381019080803573ffffffffffffffffffffffffffffffffffffffff169060200190929190505050610658565b005b34801561014557600080fd5b5061017a600480360381019080803573ffffffffffffffffffffffffffffffffffffffff16906020019092919050505061084c565b604051808215151515815260200191505060405180910390f35b3480156101a057600080fd5b506101d5600480360381019080803573ffffffffffffffffffffffffffffffffffffffff169060200190929190505050610877565b604051808515151515815260200184600019166000191681526020018360ff1660ff1681526020018260ff1660ff16815260200194505050505060405180910390f35b34801561022457600080fd5b50610259600480360381019080803573ffffffffffffffffffffffffffffffffffffffff1690602001909291905050506108ce565b005b34801561026757600080fd5b5061029c600480360381019080803573ffffffffffffffffffffffffffffffffffffffff169060200190929190505050610c3e565b005b3480156102aa57600080fd5b506102df600480360381019080803573ffffffffffffffffffffffffffffffffffffffff1690602001909291905050506110f1565b6040518085600019166000191681526020018460ff1660ff1681526020018360ff1660ff1681526020018215151515815260200194505050505060405180910390f35b34801561032e57600080fd5b50610363600480360381019080803573ffffffffffffffffffffffffffffffffffffffff169060200190929190505050611333565b604051808215151515815260200191505060405180910390f35b34801561038957600080fd5b5061039261135e565b005b3480156103a057600080fd5b506103d5600480360381019080803573ffffffffffffffffffffffffffffffffffffffff169060200190929190505050611418565b604051808515151515815260200184600019166000191681526020018360ff1660ff1681526020018260ff1660ff16815260200194505050505060405180910390f35b34801561042457600080fd5b50610459600480360381019080803573ffffffffffffffffffffffffffffffffffffffff16906020019092919050505061146f565b005b34801561046757600080fd5b5061047061166d565b604051808273ffffffffffffffffffffffffffffffffffffffff1673ffffffffffffffffffffffffffffffffffffffff16815260200191505060405180910390f35b3480156104be57600080fd5b506104c7611696565b604051808215151515815260200191505060405180910390f35b3480156104ed57600080fd5b50610522600480360381019080803573ffffffffffffffffffffffffffffffffffffffff1690602001909291905050506116ed565b005b34801561053057600080fd5b50610565600480360381019080803573ffffffffffffffffffffffffffffffffffffffff169060200190929190505050611ba0565b005b34801561057357600080fd5b506105d0600480360381019080803573ffffffffffffffffffffffffffffffffffffffff1690602001909291908035600019169060200190929190803560ff169060200190929190803560ff169060200190929190505050611e09565b005b3480156105de57600080fd5b50610613600480360381019080803573ffffffffffffffffffffffffffffffffffffffff169060200190929190505050612041565b005b34801561062157600080fd5b50610656600480360381019080803573ffffffffffffffffffffffffffffffffffffffff1690602001909291905050506122c3565b005b60011515600460003373ffffffffffffffffffffffffffffffffffffffff1673ffffffffffffffffffffffffffffffffffffffff16815260200190815260200160002060000160009054906101000a900460ff161515141515610723576040517f08c379a00000000000000000000000000000000000000000000000000000000081526004018080602001828103825260148152602001807f41646472657373206973206e6f742061646d696e00000000000000000000000081525060200191505060405180910390fd5b600460008273ffffffffffffffffffffffffffffffffffffffff1673ffffffffffffffffffffffffffffffffffffffff168152602001908152602001600020600080820160006101000a81549060ff02191690555050600360008273ffffffffffffffffffffffffffffffffffffffff1673ffffffffffffffffffffffffffffffffffffffff168152602001908152602001600020600080820160006101000a81549060ff021916905550508073ffffffffffffffffffffffffffffffffffffffff167ff7e8020bd837a6f810b8c51b8a90714e53cdbdd140445c5cf66dafc27b0734c833604051808273ffffffffffffffffffffffffffffffffffffffff1673ffffffffffffffffffffffffffffffffffffffff16815260200191505060405180910390a250565b60036020528060005260406000206000915090508060000160009054906101000a900460ff16905081565b60016020528060005260406000206000915090508060000160009054906101000a900460ff16908060010154908060020160009054906101000a900460ff16908060020160019054906101000a900460ff16905084565b600060011515600460003373ffffffffffffffffffffffffffffffffffffffff1673ffffffffffffffffffffffffffffffffffffffff16815260200190815260200160002060000160009054906101000a900460ff16151514151561099b576040517f08c379a00000000000000000000000000000000000000000000000000000000081526004018080602001828103825260148152602001807f41646472657373206973206e6f742061646d696e00000000000000000000000081525060200191505060405180910390fd5b600260008373ffffffffffffffffffffffffffffffffffffffff1673ffffffffffffffffffffffffffffffffffffffff16815260200190815260200160002060000160009054906101000a900460ff161515610a5f576040517f08c379a000000000000000000000000000000000000000000000000000000000815260040180806020018281038252601e8152602001807f556e766572696669656420617373657420646f65736e2774206578697374000081525060200191505060405180910390fd5b600260008373ffffffffffffffffffffffffffffffffffffffff1673ffffffffffffffffffffffffffffffffffffffff168152602001908152602001600020600101549050600260008373ffffffffffffffffffffffffffffffffffffffff1673ffffffffffffffffffffffffffffffffffffffff168152602001908152602001600020600080820160006101000a81549060ff021916905560018201600090556002820160006101000a81549060ff02191690556002820160016101000a81549060ff02191690555050600160008373ffffffffffffffffffffffffffffffffffffffff1673ffffffffffffffffffffffffffffffffffffffff168152602001908152602001600020600080820160006101000a81549060ff021916905560018201600090556002820160006101000a81549060ff02191690556002820160016101000a81549060ff021916905550508173ffffffffffffffffffffffffffffffffffffffff167f1c5871571b8f047b0a93874d29e3476733c853903974d823894a1a787905a33782336040518083600019166000191681526020018273ffffffffffffffffffffffffffffffffffffffff1673ffffffffffffffffffffffffffffffffffffffff1681526020019250505060405180910390a25050565b610c466123dc565b60011515600360003373ffffffffffffffffffffffffffffffffffffffff1673ffffffffffffffffffffffffffffffffffffffff16815260200190815260200160002060000160009054906101000a900460ff161515141515610d11576040517f08c379a000000000000000000000000000000000000000000000000000000000815260040180806020018281038252601f8152602001807f41646472657373206973206e6f7420616e20656e6c697374656420706565720081525060200191505060405180910390fd5b600260008373ffffffffffffffffffffffffffffffffffffffff1673ffffffffffffffffffffffffffffffffffffffff16815260200190815260200160002060000160009054906101000a900460ff161515610dd5576040517f08c379a00000000000000000000000000000000000000000000000000000000081526004018080602001828103825260138152602001807f417373657420646f65736e27742065786973740000000000000000000000000081525060200191505060405180910390fd5b608060405190810160405280600115158152602001600260008573ffffffffffffffffffffffffffffffffffffffff1673ffffffffffffffffffffffffffffffffffffffff16815260200190815260200160002060010154600019168152602001600260008573ffffffffffffffffffffffffffffffffffffffff1673ffffffffffffffffffffffffffffffffffffffff16815260200190815260200160002060020160009054906101000a900460ff1660ff168152602001600260008573ffffffffffffffffffffffffffffffffffffffff1673ffffffffffffffffffffffffffffffffffffffff16815260200190815260200160002060020160019054906101000a900460ff1660ff16815250905080600160008473ffffffffffffffffffffffffffffffffffffffff1673ffffffffffffffffffffffffffffffffffffffff16815260200190815260200160002060008201518160000160006101000a81548160ff0219169083151502179055506020820151816001019060001916905560408201518160020160006101000a81548160ff021916908360ff16021790555060608201518160020160016101000a81548160ff021916908360ff160217905550905050600260008373ffffffffffffffffffffffffffffffffffffffff1673ffffffffffffffffffffffffffffffffffffffff168152602001908152602001600020600080820160006101000a81549060ff021916905560018201600090556002820160006101000a81549060ff02191690556002820160016101000a81549060ff021916905550508173ffffffffffffffffffffffffffffffffffffffff167fb1741c29b2f7b420d3e9fa64507b963872c8c3c4927f8594920bf1c9476fefdd600160008573ffffffffffffffffffffffffffffffffffffffff1673ffffffffffffffffffffffffffffffffffffffff16815260200190815260200160002060010154336040518083600019166000191681526020018273ffffffffffffffffffffffffffffffffffffffff1673ffffffffffffffffffffffffffffffffffffffff1681526020019250505060405180910390a25050565b600080600080600160008673ffffffffffffffffffffffffffffffffffffffff1673ffffffffffffffffffffffffffffffffffffffff16815260200190815260200160002060000160009054906101000a900460ff161561123e57600160008673ffffffffffffffffffffffffffffffffffffffff1673ffffffffffffffffffffffffffffffffffffffff16815260200190815260200160002060010154600160008773ffffffffffffffffffffffffffffffffffffffff1673ffffffffffffffffffffffffffffffffffffffff16815260200190815260200160002060020160009054906101000a900460ff16600160008873ffffffffffffffffffffffffffffffffffffffff1673ffffffffffffffffffffffffffffffffffffffff16815260200190815260200160002060020160019054906101000a900460ff166001935093509350935061132c565b600260008673ffffffffffffffffffffffffffffffffffffffff1673ffffffffffffffffffffffffffffffffffffffff16815260200190815260200160002060010154600260008773ffffffffffffffffffffffffffffffffffffffff1673ffffffffffffffffffffffffffffffffffffffff16815260200190815260200160002060020160009054906101000a900460ff16600260008873ffffffffffffffffffffffffffffffffffffffff1673ffffffffffffffffffffffffffffffffffffffff16815260200190815260200160002060020160019054906101000a900460ff16600093509350935093505b9193509193565b60046020528060005260406000206000915090508060000160009054906101000a900460ff16905081565b611366611696565b151561137157600080fd5b6000809054906101000a900473ffffffffffffffffffffffffffffffffffffffff1673ffffffffffffffffffffffffffffffffffffffff167ff8df31144d9c2f0f6b59d69b8b98abd5459d07f2742c4df920b25aae33c6482060405160405180910390a260008060006101000a81548173ffffffffffffffffffffffffffffffffffffffff021916908373ffffffffffffffffffffffffffffffffffffffff160217905550565b60026020528060005260406000206000915090508060000160009054906101000a900460ff16908060010154908060020160009054906101000a900460ff16908060020160019054906101000a900460ff16905084565b60011515600460003373ffffffffffffffffffffffffffffffffffffffff1673ffffffffffffffffffffffffffffffffffffffff16815260200190815260200160002060000160009054906101000a900460ff16151514151561153a576040517f08c379a00000000000000000000000000000000000000000000000000000000081526004018080602001828103825260148152602001807f41646472657373206973206e6f742061646d696e00000000000000000000000081525060200191505060405180910390fd5b6001600460008373ffffffffffffffffffffffffffffffffffffffff1673ffffffffffffffffffffffffffffffffffffffff16815260200190815260200160002060000160006101000a81548160ff0219169083151502179055506001600360008373ffffffffffffffffffffffffffffffffffffffff1673ffffffffffffffffffffffffffffffffffffffff16815260200190815260200160002060000160006101000a81548160ff0219169083151502179055508073ffffffffffffffffffffffffffffffffffffffff167fc308d00fa6d8c8d37329df793b23c1b1e569fd63bd393831dd863f56e9d7b78d33604051808273ffffffffffffffffffffffffffffffffffffffff1673ffffffffffffffffffffffffffffffffffffffff16815260200191505060405180910390a250565b60008060009054906101000a900473ffffffffffffffffffffffffffffffffffffffff16905090565b60008060009054906101000a900473ffffffffffffffffffffffffffffffffffffffff1673ffffffffffffffffffffffffffffffffffffffff163373ffffffffffffffffffffffffffffffffffffffff1614905090565b6116f56123dc565b60011515600460003373ffffffffffffffffffffffffffffffffffffffff1673ffffffffffffffffffffffffffffffffffffffff16815260200190815260200160002060000160009054906101000a900460ff1615151415156117c0576040517f08c379a00000000000000000000000000000000000000000000000000000000081526004018080602001828103825260148152602001807f41646472657373206973206e6f742061646d696e00000000000000000000000081525060200191505060405180910390fd5b600160008373ffffffffffffffffffffffffffffffffffffffff1673ffffffffffffffffffffffffffffffffffffffff16815260200190815260200160002060000160009054906101000a900460ff161515611884576040517f08c379a000000000000000000000000000000000000000000000000000000000815260040180806020018281038252601c8152602001807f566572696669656420617373657420646f65736e27742065786973740000000081525060200191505060405180910390fd5b608060405190810160405280600115158152602001600260008573ffffffffffffffffffffffffffffffffffffffff1673ffffffffffffffffffffffffffffffffffffffff16815260200190815260200160002060010154600019168152602001600260008573ffffffffffffffffffffffffffffffffffffffff1673ffffffffffffffffffffffffffffffffffffffff16815260200190815260200160002060020160009054906101000a900460ff1660ff168152602001600260008573ffffffffffffffffffffffffffffffffffffffff1673ffffffffffffffffffffffffffffffffffffffff16815260200190815260200160002060020160019054906101000a900460ff1660ff16815250905080600260008473ffffffffffffffffffffffffffffffffffffffff1673ffffffffffffffffffffffffffffffffffffffff16815260200190815260200160002060008201518160000160006101000a81548160ff0219169083151502179055506020820151816001019060001916905560408201518160020160006101000a81548160ff021916908360ff16021790555060608201518160020160016101000a81548160ff021916908360ff160217905550905050600160008373ffffffffffffffffffffffffffffffffffffffff1673ffffffffffffffffffffffffffffffffffffffff168152602001908152602001600020600080820160006101000a81549060ff021916905560018201600090556002820160006101000a81549060ff02191690556002820160016101000a81549060ff021916905550508173ffffffffffffffffffffffffffffffffffffffff167f04781d307fa586dd51714c944a34dc7ca9a1c99b50783136ddd22bff6f440e46600260008573ffffffffffffffffffffffffffffffffffffffff1673ffffffffffffffffffffffffffffffffffffffff16815260200190815260200160002060010154336040518083600019166000191681526020018273ffffffffffffffffffffffffffffffffffffffff1673ffffffffffffffffffffffffffffffffffffffff1681526020019250505060405180910390a25050565b60011515600460003373ffffffffffffffffffffffffffffffffffffffff1673ffffffffffffffffffffffffffffffffffffffff16815260200190815260200160002060000160009054906101000a900460ff161515141515611c6b576040517f08c379a00000000000000000000000000000000000000000000000000000000081526004018080602001828103825260148152602001807f41646472657373206973206e6f742061646d696e00000000000000000000000081525060200191505060405180910390fd5b60011515600360008373ffffffffffffffffffffffffffffffffffffffff1673ffffffffffffffffffffffffffffffffffffffff16815260200190815260200160002060000160009054906101000a900460ff161515141515611d36576040517f08c379a00000000000000000000000000000000000000000000000000000000081526004018080602001828103825260168152602001807f5065657220646f6573206e6f7420656e6c69737465640000000000000000000081525060200191505060405180910390fd5b600360008273ffffffffffffffffffffffffffffffffffffffff1673ffffffffffffffffffffffffffffffffffffffff168152602001908152602001600020600080820160006101000a81549060ff021916905550508073ffffffffffffffffffffffffffffffffffffffff167fb0a6cd00d8d6318322d96fca369963e03b2ac2aa131258324b6c862daccbf2ab33604051808273ffffffffffffffffffffffffffffffffffffffff1673ffffffffffffffffffffffffffffffffffffffff16815260200191505060405180910390a250565b600260008573ffffffffffffffffffffffffffffffffffffffff1673ffffffffffffffffffffffffffffffffffffffff16815260200190815260200160002060000160009054906101000a900460ff16151515611ece576040517f08c379a00000000000000000000000000000000000000000000000000000000081526004018080602001828103825260148152602001807f417373657420616c72656164792065786973747300000000000000000000000081525060200191505060405180910390fd5b608060405190810160405280600115158152602001846000191681526020018360ff1681526020018260ff16815250600260008673ffffffffffffffffffffffffffffffffffffffff1673ffffffffffffffffffffffffffffffffffffffff16815260200190815260200160002060008201518160000160006101000a81548160ff0219169083151502179055506020820151816001019060001916905560408201518160020160006101000a81548160ff021916908360ff16021790555060608201518160020160016101000a81548160ff021916908360ff1602179055509050508373ffffffffffffffffffffffffffffffffffffffff167f575815d8c23cc1397beb7e517d3554093358ba082c18c3e403ecc9beb033f88284336040518083600019166000191681526020018273ffffffffffffffffffffffffffffffffffffffff1673ffffffffffffffffffffffffffffffffffffffff1681526020019250505060405180910390a250505050565b60011515600460003373ffffffffffffffffffffffffffffffffffffffff1673ffffffffffffffffffffffffffffffffffffffff16815260200190815260200160002060000160009054906101000a900460ff16151514151561210c576040517f08c379a00000000000000000000000000000000000000000000000000000000081526004018080602001828103825260148152602001807f41646472657373206973206e6f742061646d696e00000000000000000000000081525060200191505060405180910390fd5b600360008273ffffffffffffffffffffffffffffffffffffffff1673ffffffffffffffffffffffffffffffffffffffff16815260200190815260200160002060000160009054906101000a900460ff161515156121d1576040517f08c379a00000000000000000000000000000000000000000000000000000000081526004018080602001828103825260158152602001807f5065657220616c726561647920656e6c6973746564000000000000000000000081525060200191505060405180910390fd5b60206040519081016040528060011515815250600360008373ffffffffffffffffffffffffffffffffffffffff1673ffffffffffffffffffffffffffffffffffffffff16815260200190815260200160002060008201518160000160006101000a81548160ff0219169083151502179055509050508073ffffffffffffffffffffffffffffffffffffffff167f0d333fad7726756b804929ab9e15ca69b1e5f9dbfbe9cfea90fe420b2830b53433604051808273ffffffffffffffffffffffffffffffffffffffff1673ffffffffffffffffffffffffffffffffffffffff16815260200191505060405180910390a250565b6122cb611696565b15156122d657600080fd5b6122df816122e2565b50565b600073ffffffffffffffffffffffffffffffffffffffff168173ffffffffffffffffffffffffffffffffffffffff161415151561231e57600080fd5b8073ffffffffffffffffffffffffffffffffffffffff166000809054906101000a900473ffffffffffffffffffffffffffffffffffffffff1673ffffffffffffffffffffffffffffffffffffffff167f8be0079c531659141344cd1fd0a4f28419497f9722a3daafe3b4186f6b6457e060405160405180910390a3806000806101000a81548173ffffffffffffffffffffffffffffffffffffffff021916908373ffffffffffffffffffffffffffffffffffffffff16021790555050565b60806040519081016040528060001515815260200160008019168152602001600060ff168152602001600060ff16815250905600a165627a7a72305820aa97b837ce80466fa0f0a43e69fa2d95831012b7dd772d1c8d759e7833e5e3310029",
  "source": "pragma solidity ^0.4.18;\r\n\r\nimport './Ownable.sol';\r\n\r\n\r\n/**\r\n * @title NoBlankImg\r\n * @dev The NoBlankImg contract contains methods for managing admins, peers,\r\n * and asset hashes.\r\n */\r\ncontract NoBlankImg is Ownable {\r\n\r\n    event AssetAdded(address indexed assetId, bytes32 digest, address uploader);\r\n    event AssetRemoved(address indexed assetId, bytes32 digest, address uploader);\r\n    event AssetVerified(address indexed assetId, bytes32 digest, address peer);\r\n    event AssetUnverified(address indexed assetId, bytes32 digest, address peer);\r\n    event PeerEnlisted(address indexed peer, address admin);\r\n    event PeerDelisted(address indexed peer, address admin);\r\n    event AdminEnlisted(address indexed enlistedAdmin, address admin);\r\n    event AdminDelisted(address indexed delistedAdmin, address admin);\r\n\r\n    struct Peer {\r\n        bool isEnlisted;\r\n        // CONSIDER: Peer time since enlisted\r\n    }\r\n\r\n    struct Asset {\r\n        bool exists;\r\n        bytes32 digest;\r\n        uint8 hashFunction;\r\n        uint8 size;\r\n        // CONSIDER: A mapping of peers who flagged this asset\r\n    }\r\n\r\n    struct Admin {\r\n        bool isAdmin;\r\n    }\r\n\r\n    // TODO: Source: See https://github.com/multiformats/multihash\r\n\r\n    /*    struct Multihash {\r\n            bytes32 digest;\r\n            uint8 hashFunction;\r\n            uint8 size;\r\n        }*/\r\n\r\n\r\n    mapping(address => Asset) public verifiedAsset;\r\n    mapping(address => Asset) public unverifiedAsset;\r\n    mapping(address => Peer) public peer;\r\n    mapping(address => Admin) public admin;\r\n\r\n    modifier only_admin {\r\n        require(admin[msg.sender].isAdmin == true, \"Address is not admin\");\r\n        _;\r\n    }\r\n\r\n    modifier only_peer {\r\n        require(peer[msg.sender].isEnlisted == true, \"Address is not an enlisted peer\");\r\n        _;\r\n    }\r\n\r\n    /**\r\n     * @dev The NoBlankImg constructor sets the admin to the contract owner\r\n     * (the contract deployer)\r\n     */\r\n    constructor() public {\r\n        admin[owner()].isAdmin = true;\r\n        peer[owner()].isEnlisted = true;\r\n    }\r\n\r\n    function enlistAdmin(address _admin) public only_admin {\r\n        admin[_admin].isAdmin = true;\r\n        peer[_admin].isEnlisted = true;\r\n        emit AdminEnlisted(_admin, msg.sender);\r\n    }\r\n\r\n    function delistAdmin(address _admin) public only_admin {\r\n        delete admin[_admin];\r\n        delete peer[_admin];\r\n        emit AdminDelisted(_admin, msg.sender);\r\n    }\r\n\r\n    function verifyAsset(address assetId) public only_peer {\r\n        require(unverifiedAsset[assetId].exists, \"Asset doesn't exist\");\r\n\r\n        // Add the unverified asset to the list of verified\r\n        // assets and remove it from the unverified assets\r\n\r\n        Asset memory asset = Asset(true,\r\n            unverifiedAsset[assetId].digest,\r\n            unverifiedAsset[assetId].hashFunction,\r\n            unverifiedAsset[assetId].size);\r\n\r\n        verifiedAsset[assetId] = asset;\r\n        delete unverifiedAsset[assetId];\r\n        emit AssetVerified(assetId, verifiedAsset[assetId].digest, msg.sender);\r\n    }\r\n\r\n    function unverifyAsset(address assetId) public only_admin {\r\n        require(verifiedAsset[assetId].exists, \"Verified asset doesn't exist\");\r\n        Asset memory asset = Asset(true,\r\n            unverifiedAsset[assetId].digest,\r\n            unverifiedAsset[assetId].hashFunction,\r\n            unverifiedAsset[assetId].size);\r\n        unverifiedAsset[assetId] = asset;\r\n        delete verifiedAsset[assetId];\r\n        emit AssetUnverified(assetId, unverifiedAsset[assetId].digest, msg.sender);\r\n    }\r\n\r\n    function addAsset(address assetId, bytes32 digest, uint8 hashFunction, uint8 size) public {\r\n        require(!unverifiedAsset[assetId].exists, \"Asset already exists\");\r\n        unverifiedAsset[assetId] = Asset(true, digest, hashFunction, size);\r\n        emit AssetAdded(assetId, digest, msg.sender);\r\n    }\r\n\r\n    function getAssetByHash(address assetId) public view returns (bytes32, uint8, uint8, bool) {\r\n        if (verifiedAsset[assetId].exists) {\r\n            return (verifiedAsset[assetId].digest,\r\n                    verifiedAsset[assetId].hashFunction,\r\n                    verifiedAsset[assetId].size, true);\r\n        } else {\r\n            return (unverifiedAsset[assetId].digest,\r\n                    unverifiedAsset[assetId].hashFunction,\r\n                    unverifiedAsset[assetId].size, false);\r\n        }\r\n    }\r\n\r\n    function removeAsset(address assetId) public only_admin {\r\n        require(unverifiedAsset[assetId].exists, \"Unverified asset doesn't exist\");\r\n        bytes32 digest = unverifiedAsset[assetId].digest;\r\n        delete unverifiedAsset[assetId];\r\n        delete verifiedAsset[assetId];\r\n        emit AssetRemoved(assetId, digest, msg.sender);\r\n    }\r\n\r\n    function enlistPeer(address _peer) public only_admin {\r\n        require(!peer[_peer].isEnlisted, \"Peer already enlisted\");\r\n        peer[_peer] = Peer({isEnlisted : true});\r\n        emit PeerEnlisted(_peer, msg.sender);\r\n    }\r\n\r\n    function delistPeer(address _peer) public only_admin {\r\n        require(peer[_peer].isEnlisted == true, \"Peer does not enlisted\");\r\n        delete peer[_peer];\r\n        emit PeerDelisted(_peer, msg.sender);\r\n    }\r\n}\r\n",
  "sourcePath": "/mnt/c/Users/taylo/Ethereum/noblankimg/contracts/NoBlankImg.sol",
  "compiler": {
    "name": "solc",
    "version": "0.4.24+commit.e67f0147.Emscripten.clang"
  },
  "schemaVersion": "2.0.1",
  "updatedAt": "2018-09-12T19:13:45.956Z"
}